{
  "_format": "hh-sol-artifact-1",
  "contractName": "ZUGPresale",
  "sourceName": "contracts/ZUGPresale.sol",
  "abi": [
    {
      "inputs": [
        {
          "internalType": "address",
          "name": "_zugToken",
          "type": "address"
        },
        {
          "internalType": "uint256",
          "name": "_initialPriceUsd",
          "type": "uint256"
        },
        {
          "internalType": "address",
          "name": "_ethUsdPriceFeed",
          "type": "address"
        }
      ],
      "stateMutability": "nonpayable",
      "type": "constructor"
    },
    {
      "anonymous": false,
      "inputs": [
        {
          "indexed": true,
          "internalType": "address",
          "name": "owner",
          "type": "address"
        },
        {
          "indexed": false,
          "internalType": "uint256",
          "name": "amount",
          "type": "uint256"
        }
      ],
      "name": "ETHWithdrawn",
      "type": "event"
    },
    {
      "anonymous": false,
      "inputs": [
        {
          "indexed": true,
          "internalType": "address",
          "name": "previousOwner",
          "type": "address"
        },
        {
          "indexed": true,
          "internalType": "address",
          "name": "newOwner",
          "type": "address"
        }
      ],
      "name": "OwnershipTransferred",
      "type": "event"
    },
    {
      "anonymous": false,
      "inputs": [
        {
          "indexed": false,
          "internalType": "uint256",
          "name": "oldPrice",
          "type": "uint256"
        },
        {
          "indexed": false,
          "internalType": "uint256",
          "name": "newPrice",
          "type": "uint256"
        }
      ],
      "name": "PriceUpdated",
      "type": "event"
    },
    {
      "anonymous": false,
      "inputs": [
        {
          "indexed": true,
          "internalType": "address",
          "name": "buyer",
          "type": "address"
        },
        {
          "indexed": false,
          "internalType": "uint256",
          "name": "ethAmount",
          "type": "uint256"
        },
        {
          "indexed": false,
          "internalType": "uint256",
          "name": "tokenAmount",
          "type": "uint256"
        },
        {
          "indexed": false,
          "internalType": "uint256",
          "name": "priceUsd",
          "type": "uint256"
        }
      ],
      "name": "TokenPurchased",
      "type": "event"
    },
    {
      "anonymous": false,
      "inputs": [
        {
          "indexed": true,
          "internalType": "address",
          "name": "owner",
          "type": "address"
        },
        {
          "indexed": false,
          "internalType": "uint256",
          "name": "amount",
          "type": "uint256"
        }
      ],
      "name": "TokensWithdrawn",
      "type": "event"
    },
    {
      "inputs": [],
      "name": "buyTokens",
      "outputs": [],
      "stateMutability": "payable",
      "type": "function"
    },
    {
      "inputs": [
        {
          "internalType": "uint256",
          "name": "tokenAmount",
          "type": "uint256"
        }
      ],
      "name": "calculateETHNeeded",
      "outputs": [
        {
          "internalType": "uint256",
          "name": "",
          "type": "uint256"
        }
      ],
      "stateMutability": "view",
      "type": "function"
    },
    {
      "inputs": [
        {
          "internalType": "uint256",
          "name": "ethAmount",
          "type": "uint256"
        }
      ],
      "name": "calculateTokenAmount",
      "outputs": [
        {
          "internalType": "uint256",
          "name": "",
          "type": "uint256"
        }
      ],
      "stateMutability": "view",
      "type": "function"
    },
    {
      "inputs": [],
      "name": "ethUsdPriceFeed",
      "outputs": [
        {
          "internalType": "contract AggregatorV3Interface",
          "name": "",
          "type": "address"
        }
      ],
      "stateMutability": "view",
      "type": "function"
    },
    {
      "inputs": [],
      "name": "getContractETHBalance",
      "outputs": [
        {
          "internalType": "uint256",
          "name": "",
          "type": "uint256"
        }
      ],
      "stateMutability": "view",
      "type": "function"
    },
    {
      "inputs": [],
      "name": "getContractTokenBalance",
      "outputs": [
        {
          "internalType": "uint256",
          "name": "",
          "type": "uint256"
        }
      ],
      "stateMutability": "view",
      "type": "function"
    },
    {
      "inputs": [],
      "name": "getCurrentEthUsdPrice",
      "outputs": [
        {
          "internalType": "uint256",
          "name": "",
          "type": "uint256"
        }
      ],
      "stateMutability": "view",
      "type": "function"
    },
    {
      "inputs": [],
      "name": "getLatestEthUsdPrice",
      "outputs": [
        {
          "internalType": "uint256",
          "name": "",
          "type": "uint256"
        }
      ],
      "stateMutability": "view",
      "type": "function"
    },
    {
      "inputs": [],
      "name": "owner",
      "outputs": [
        {
          "internalType": "address",
          "name": "",
          "type": "address"
        }
      ],
      "stateMutability": "view",
      "type": "function"
    },
    {
      "inputs": [],
      "name": "renounceOwnership",
      "outputs": [],
      "stateMutability": "nonpayable",
      "type": "function"
    },
    {
      "inputs": [
        {
          "internalType": "uint256",
          "name": "newPriceUsd",
          "type": "uint256"
        }
      ],
      "name": "setPrice",
      "outputs": [],
      "stateMutability": "nonpayable",
      "type": "function"
    },
    {
      "inputs": [],
      "name": "tokenPriceUsd",
      "outputs": [
        {
          "internalType": "uint256",
          "name": "",
          "type": "uint256"
        }
      ],
      "stateMutability": "view",
      "type": "function"
    },
    {
      "inputs": [
        {
          "internalType": "address",
          "name": "newOwner",
          "type": "address"
        }
      ],
      "name": "transferOwnership",
      "outputs": [],
      "stateMutability": "nonpayable",
      "type": "function"
    },
    {
      "inputs": [],
      "name": "withdrawETH",
      "outputs": [],
      "stateMutability": "nonpayable",
      "type": "function"
    },
    {
      "inputs": [],
      "name": "withdrawTokens",
      "outputs": [],
      "stateMutability": "nonpayable",
      "type": "function"
    },
    {
      "inputs": [],
      "name": "zugToken",
      "outputs": [
        {
          "internalType": "contract IERC20",
          "name": "",
          "type": "address"
        }
      ],
      "stateMutability": "view",
      "type": "function"
    }
  ],
  "bytecode": "0x608060405234801561001057600080fd5b5060405161103138038061103183398101604081905261002f91610190565b61003833610124565b600180556001600160a01b0383166100975760405162461bcd60e51b815260206004820152601560248201527f496e76616c696420746f6b656e2061646472657373000000000000000000000060448201526064015b60405180910390fd5b6001600160a01b0381166100ed5760405162461bcd60e51b815260206004820152601a60248201527f496e76616c696420707269636520666565642061646472657373000000000000604482015260640161008e565b600280546001600160a01b039485166001600160a01b031991821617909155600392909255600480549190931691161790556101cc565b600080546001600160a01b038381166001600160a01b0319831681178455604051919092169283917f8be0079c531659141344cd1fd0a4f28419497f9722a3daafe3b4186f6b6457e09190a35050565b80516001600160a01b038116811461018b57600080fd5b919050565b6000806000606084860312156101a557600080fd5b6101ae84610174565b9250602084015191506101c360408501610174565b90509250925092565b610e56806101db6000396000f3fe6080604052600436106100f35760003560e01c80638da5cb5b1161008a578063db54551911610059578063db54551914610248578063e086e5ec1461025d578063e50fe6de14610272578063f2fde38b1461029257600080fd5b80638da5cb5b146101e257806391b7f5ed14610200578063a24bcf4614610220578063d0febe4c1461024057600080fd5b80635249be25116100c65780635249be251461018d578063715018a6146101a35780638c89a0ad146101ba5780638d8f2adb146101cd57600080fd5b806306e38192146100f8578063302145991461012b578063317d94531461014057806342f6fb2914610155575b600080fd5b34801561010457600080fd5b50610118610113366004610ce5565b6102b2565b6040519081526020015b60405180910390f35b34801561013757600080fd5b50610118610318565b34801561014c57600080fd5b506101186103e5565b34801561016157600080fd5b50600454610175906001600160a01b031681565b6040516001600160a01b039091168152602001610122565b34801561019957600080fd5b5061011860035481565b3480156101af57600080fd5b506101b8610457565b005b3480156101c657600080fd5b5047610118565b3480156101d957600080fd5b506101b861046b565b3480156101ee57600080fd5b506000546001600160a01b0316610175565b34801561020c57600080fd5b506101b861021b366004610ce5565b61065b565b34801561022c57600080fd5b5061011861023b366004610ce5565b6106f8565b6101b861074c565b34801561025457600080fd5b50610118610a27565b34801561026957600080fd5b506101b8610a31565b34801561027e57600080fd5b50600254610175906001600160a01b031681565b34801561029e57600080fd5b506101b86102ad366004610cfe565b610b69565b6000806102bd610318565b90506000670de0b6b3a7640000600354856102d89190610d2e565b6102e29190610d59565b90506102f182620f4240610d2e565b610306826a52b7d2dcc80cd2e4000000610d2e565b6103109190610d59565b949350505050565b6004805460408051633fabe5a360e21b8152905160009384936001600160a01b03169263feaf968c928183019260a0928290030181865afa158015610361573d6000803e3d6000fd5b505050506040513d601f19601f820116820180604052508101906103859190610d95565b505050915050600081136103e05760405162461bcd60e51b815260206004820152601960248201527f496e76616c69642070726963652066726f6d206f7261636c650000000000000060448201526064015b60405180910390fd5b919050565b6002546040516370a0823160e01b81523060048201526000916001600160a01b0316906370a0823190602401602060405180830381865afa15801561042e573d6000803e3d6000fd5b505050506040513d601f19601f820116820180604052508101906104529190610de5565b905090565b61045f610be2565b6104696000610c3c565b565b610473610be2565b6002546040516370a0823160e01b81523060048201526000916001600160a01b0316906370a0823190602401602060405180830381865afa1580156104bc573d6000803e3d6000fd5b505050506040513d601f19601f820116820180604052508101906104e09190610de5565b90506000811161052a5760405162461bcd60e51b81526020600482015260156024820152744e6f20746f6b656e7320746f20776974686472617760581b60448201526064016103d7565b6002546001600160a01b031663a9059cbb61054d6000546001600160a01b031690565b6040516001600160e01b031960e084901b1681526001600160a01b039091166004820152602481018490526044016020604051808303816000875af115801561059a573d6000803e3d6000fd5b505050506040513d601f19601f820116820180604052508101906105be9190610dfe565b61060a5760405162461bcd60e51b815260206004820152601760248201527f546f6b656e207769746864726177616c206661696c656400000000000000000060448201526064016103d7565b6000546001600160a01b03166001600160a01b03167f6352c5382c4a4578e712449ca65e83cdb392d045dfcf1cad9615189db2da244b8260405161065091815260200190565b60405180910390a250565b610663610be2565b600081116106b35760405162461bcd60e51b815260206004820152601c60248201527f5072696365206d7573742062652067726561746572207468616e20300000000060448201526064016103d7565b600380549082905560408051828152602081018490527f945c1c4e99aa89f648fbfe3df471b916f719e16d960fcec0737d4d56bd696838910160405180910390a15050565b600080610703610318565b905060006a52b7d2dcc80cd2e400000061071d8386610d2e565b6107279190610d59565b9050600354620f424061073a9190610d2e565b61030682670de0b6b3a7640000610d2e565b610754610c8c565b600034116107a45760405162461bcd60e51b815260206004820152601b60248201527f4d7573742073656e642045544820746f2062757920746f6b656e73000000000060448201526064016103d7565b6509184e72a0003410156107fa5760405162461bcd60e51b815260206004820152601f60248201527f4d696e696d756d20707572636861736520697320302e3030303031204554480060448201526064016103d7565b6000610805346106f8565b9050600081116108635760405162461bcd60e51b815260206004820152602360248201527f546f6b656e20616d6f756e74206d75737420626520677265617465722074686160448201526206e20360ec1b60648201526084016103d7565b6002546040516370a0823160e01b815230600482015282916001600160a01b0316906370a0823190602401602060405180830381865afa1580156108ab573d6000803e3d6000fd5b505050506040513d601f19601f820116820180604052508101906108cf9190610de5565b101561091d5760405162461bcd60e51b815260206004820152601f60248201527f496e73756666696369656e7420746f6b656e7320696e20636f6e74726163740060448201526064016103d7565b60025460405163a9059cbb60e01b8152336004820152602481018390526001600160a01b039091169063a9059cbb906044016020604051808303816000875af115801561096e573d6000803e3d6000fd5b505050506040513d601f19601f820116820180604052508101906109929190610dfe565b6109d65760405162461bcd60e51b8152602060048201526015602482015274151bdad95b881d1c985b9cd9995c8819985a5b1959605a1b60448201526064016103d7565b60035460408051348152602081018490529081019190915233907f2b0c4dfbf2e34a2292e9110d6ea90d7c78f54b3aebe3974d2db7197308f21ff89060600160405180910390a25061046960018055565b6000610452610318565b610a39610be2565b4780610a7c5760405162461bcd60e51b81526020600482015260126024820152714e6f2045544820746f20776974686472617760701b60448201526064016103d7565b600080546040516001600160a01b039091169083908381818185875af1925050503d8060008114610ac9576040519150601f19603f3d011682016040523d82523d6000602084013e610ace565b606091505b5050905080610b175760405162461bcd60e51b8152602060048201526015602482015274115512081dda5d1a191c985dd85b0819985a5b1959605a1b60448201526064016103d7565b6000546001600160a01b03166001600160a01b03167f94b2de810873337ed265c5f8cf98c9cffefa06b8607f9a2f1fbaebdfbcfbef1c83604051610b5d91815260200190565b60405180910390a25050565b610b71610be2565b6001600160a01b038116610bd65760405162461bcd60e51b815260206004820152602660248201527f4f776e61626c653a206e6577206f776e657220697320746865207a65726f206160448201526564647265737360d01b60648201526084016103d7565b610bdf81610c3c565b50565b6000546001600160a01b031633146104695760405162461bcd60e51b815260206004820181905260248201527f4f776e61626c653a2063616c6c6572206973206e6f7420746865206f776e657260448201526064016103d7565b600080546001600160a01b038381166001600160a01b0319831681178455604051919092169283917f8be0079c531659141344cd1fd0a4f28419497f9722a3daafe3b4186f6b6457e09190a35050565b600260015403610cde5760405162461bcd60e51b815260206004820152601f60248201527f5265656e7472616e637947756172643a207265656e7472616e742063616c6c0060448201526064016103d7565b6002600155565b600060208284031215610cf757600080fd5b5035919050565b600060208284031215610d1057600080fd5b81356001600160a01b0381168114610d2757600080fd5b9392505050565b8082028115828204841417610d5357634e487b7160e01b600052601160045260246000fd5b92915050565b600082610d7657634e487b7160e01b600052601260045260246000fd5b500490565b805169ffffffffffffffffffff811681146103e057600080fd5b600080600080600060a08688031215610dad57600080fd5b610db686610d7b565b9450602086015193506040860151925060608601519150610dd960808701610d7b565b90509295509295909350565b600060208284031215610df757600080fd5b5051919050565b600060208284031215610e1057600080fd5b81518015158114610d2757600080fdfea2646970667358221220b5c2ea7e0bdeebb6290314be34c5b90c9c93106a90cbed1aa3c306cb7cb5cc3164736f6c63430008130033",
  "linkReferences": {},
  "deployedLinkReferences": {}
}